{"abi":[{"type":"constructor","inputs":[{"name":"_config","type":"tuple","internalType":"struct MissionConfig","components":[{"name":"sponsor","type":"address","internalType":"address"},{"name":"startDate","type":"uint256","internalType":"uint256"},{"name":"endDate","type":"uint256","internalType":"uint256"},{"name":"distributionStrategy","type":"uint8","internalType":"enum DistributionStrategy"},{"name":"addtlDataCid","type":"string","internalType":"string"}]},{"name":"_contributorEligibility","type":"address","internalType":"address"},{"name":"_verifierEligibility","type":"address","internalType":"address"},{"name":"_token","type":"address","internalType":"address"},{"name":"_owner","type":"address","internalType":"address"}],"stateMutability":"nonpayable"},{"type":"function","name":"DEFAULT_ADMIN_ROLE","inputs":[],"outputs":[{"name":"","type":"bytes32","internalType":"bytes32"}],"stateMutability":"view"},{"type":"function","name":"acceptApplication","inputs":[{"name":"applicant","type":"address","internalType":"address"}],"outputs":[],"stateMutability":"nonpayable"},{"type":"function","name":"applyAsContributor","inputs":[],"outputs":[],"stateMutability":"nonpayable"},{"type":"function","name":"config","inputs":[],"outputs":[{"name":"sponsor","type":"address","internalType":"address"},{"name":"startDate","type":"uint256","internalType":"uint256"},{"name":"endDate","type":"uint256","internalType":"uint256"},{"name":"distributionStrategy","type":"uint8","internalType":"enum DistributionStrategy"},{"name":"addtlDataCid","type":"string","internalType":"string"}],"stateMutability":"view"},{"type":"function","name":"contributorEligibility","inputs":[],"outputs":[{"name":"","type":"address","internalType":"contract IMissionEligibility"}],"stateMutability":"view"},{"type":"function","name":"distributeRewards","inputs":[],"outputs":[],"stateMutability":"pure"},{"type":"function","name":"fundWithERC20","inputs":[{"name":"amount","type":"uint256","internalType":"uint256"}],"outputs":[],"stateMutability":"nonpayable"},{"type":"function","name":"getRoleAdmin","inputs":[{"name":"role","type":"bytes32","internalType":"bytes32"}],"outputs":[{"name":"","type":"bytes32","internalType":"bytes32"}],"stateMutability":"view"},{"type":"function","name":"grantRole","inputs":[{"name":"role","type":"bytes32","internalType":"bytes32"},{"name":"account","type":"address","internalType":"address"}],"outputs":[],"stateMutability":"nonpayable"},{"type":"function","name":"hasRole","inputs":[{"name":"role","type":"bytes32","internalType":"bytes32"},{"name":"account","type":"address","internalType":"address"}],"outputs":[{"name":"","type":"bool","internalType":"bool"}],"stateMutability":"view"},{"type":"function","name":"raiseDispute","inputs":[{"name":"impactId","type":"uint256","internalType":"uint256"},{"name":"reason","type":"string","internalType":"string"}],"outputs":[],"stateMutability":"nonpayable"},{"type":"function","name":"rejectApplication","inputs":[{"name":"applicant","type":"address","internalType":"address"},{"name":"reason","type":"string","internalType":"string"}],"outputs":[],"stateMutability":"nonpayable"},{"type":"function","name":"removeContributor","inputs":[{"name":"contributor","type":"address","internalType":"address"}],"outputs":[],"stateMutability":"nonpayable"},{"type":"function","name":"renounceRole","inputs":[{"name":"role","type":"bytes32","internalType":"bytes32"},{"name":"callerConfirmation","type":"address","internalType":"address"}],"outputs":[],"stateMutability":"nonpayable"},{"type":"function","name":"returnUnclaimedFunds","inputs":[],"outputs":[],"stateMutability":"view"},{"type":"function","name":"revokeRole","inputs":[{"name":"role","type":"bytes32","internalType":"bytes32"},{"name":"account","type":"address","internalType":"address"}],"outputs":[],"stateMutability":"nonpayable"},{"type":"function","name":"submitImpact","inputs":[{"name":"ipfsHash","type":"string","internalType":"string"}],"outputs":[],"stateMutability":"nonpayable"},{"type":"function","name":"supportsInterface","inputs":[{"name":"interfaceId","type":"bytes4","internalType":"bytes4"}],"outputs":[{"name":"","type":"bool","internalType":"bool"}],"stateMutability":"view"},{"type":"function","name":"token","inputs":[],"outputs":[{"name":"","type":"address","internalType":"contract IERC20"}],"stateMutability":"view"},{"type":"function","name":"verifierEligibility","inputs":[],"outputs":[{"name":"","type":"address","internalType":"contract IMissionEligibility"}],"stateMutability":"view"},{"type":"function","name":"verifyImpact","inputs":[{"name":"impactId","type":"uint256","internalType":"uint256"}],"outputs":[],"stateMutability":"nonpayable"},{"type":"event","name":"ApplicationApproved","inputs":[{"name":"applicant","type":"address","indexed":true,"internalType":"address"},{"name":"remover","type":"address","indexed":true,"internalType":"address"}],"anonymous":false},{"type":"event","name":"ApplicationRejected","inputs":[{"name":"applicant","type":"address","indexed":true,"internalType":"address"},{"name":"reason","type":"string","indexed":false,"internalType":"string"},{"name":"remover","type":"address","indexed":true,"internalType":"address"}],"anonymous":false},{"type":"event","name":"ApplicationSubmitted","inputs":[{"name":"applicant","type":"address","indexed":true,"internalType":"address"}],"anonymous":false},{"type":"event","name":"ContributorRemoved","inputs":[{"name":"contributor","type":"address","indexed":true,"internalType":"address"},{"name":"remover","type":"address","indexed":true,"internalType":"address"}],"anonymous":false},{"type":"event","name":"DisputeRaised","inputs":[{"name":"impactId","type":"uint256","indexed":true,"internalType":"uint256"},{"name":"reason","type":"string","indexed":false,"internalType":"string"}],"anonymous":false},{"type":"event","name":"ImpactSubmitted","inputs":[{"name":"contributor","type":"address","indexed":true,"internalType":"address"},{"name":"ipfsHash","type":"string","indexed":false,"internalType":"string"}],"anonymous":false},{"type":"event","name":"ImpactVerified","inputs":[{"name":"verifier","type":"address","indexed":true,"internalType":"address"},{"name":"impactId","type":"uint256","indexed":false,"internalType":"uint256"}],"anonymous":false},{"type":"event","name":"MissionFunded","inputs":[{"name":"funder","type":"address","indexed":true,"internalType":"address"},{"name":"amount","type":"uint256","indexed":false,"internalType":"uint256"}],"anonymous":false},{"type":"event","name":"RewardsDistributed","inputs":[{"name":"impactId","type":"uint256","indexed":false,"internalType":"uint256"},{"name":"recipient","type":"address","indexed":true,"internalType":"address"},{"name":"amount","type":"uint256","indexed":false,"internalType":"uint256"}],"anonymous":false},{"type":"event","name":"RoleAdminChanged","inputs":[{"name":"role","type":"bytes32","indexed":true,"internalType":"bytes32"},{"name":"previousAdminRole","type":"bytes32","indexed":true,"internalType":"bytes32"},{"name":"newAdminRole","type":"bytes32","indexed":true,"internalType":"bytes32"}],"anonymous":false},{"type":"event","name":"RoleGranted","inputs":[{"name":"role","type":"bytes32","indexed":true,"internalType":"bytes32"},{"name":"account","type":"address","indexed":true,"internalType":"address"},{"name":"sender","type":"address","indexed":true,"internalType":"address"}],"anonymous":false},{"type":"event","name":"RoleRevoked","inputs":[{"name":"role","type":"bytes32","indexed":true,"internalType":"bytes32"},{"name":"account","type":"address","indexed":true,"internalType":"address"},{"name":"sender","type":"address","indexed":true,"internalType":"address"}],"anonymous":false},{"type":"event","name":"UnclaimedFundsReturned","inputs":[{"name":"sponsor","type":"address","indexed":true,"internalType":"address"},{"name":"amount","type":"uint256","indexed":false,"internalType":"uint256"}],"anonymous":false},{"type":"error","name":"AccessControlBadConfirmation","inputs":[]},{"type":"error","name":"AccessControlUnauthorizedAccount","inputs":[{"name":"account","type":"address","internalType":"address"},{"name":"neededRole","type":"bytes32","internalType":"bytes32"}]},{"type":"error","name":"ApplicationAlreadySubmitted","inputs":[]},{"type":"error","name":"ApplicationNotFound","inputs":[]},{"type":"error","name":"InsufficientFunds","inputs":[]},{"type":"error","name":"InvalidTokenAddress","inputs":[]},{"type":"error","name":"MissionNotEndedYet","inputs":[]},{"type":"error","name":"NotImplemented","inputs":[]},{"type":"error","name":"SafeERC20FailedOperation","inputs":[{"name":"token","type":"address","internalType":"address"}]}],"bytecode":{"object":"0x60a060405234801561001057600080fd5b506040516117c03803806117c083398101604081905261002f91610346565b6001600160a01b03821661005657604051630f58058360e11b815260040160405180910390fd5b8451600180546001600160a01b0319166001600160a01b0390921691909117815560208601516002556040860151600355606086015160048054889392919060ff19168383818111156100ab576100ab6104ab565b0217905550608082015160048201906100c4908261054a565b5050506001600160a01b03828116608052600680546001600160a01b031990811687841617909155600780549091169185169190911790558451610109908290610113565b5050505050610608565b61011e6000836101c5565b506101376000805160206117a0833981519152836101c5565b506101506000805160206117a0833981519152826101c5565b506101897fe2889e7308860b3fe8df0daa86fccfea4d71e43776719a57be28cf90b6db81e96000805160206117a0833981519152610271565b6101c17f0ce23c3e399818cfee81a7ab0880f714e53d7672b08df0fa62f2843416e1ea096000805160206117a0833981519152610271565b5050565b6000828152602081815260408083206001600160a01b038516845290915281205460ff16610267576000838152602081815260408083206001600160a01b03861684529091529020805460ff1916600117905561021f3390565b6001600160a01b0316826001600160a01b0316847f2f8788117e7eff1d82e926ec794901d17c78024a50270940304540a733656f0d60405160405180910390a450600161026b565b5060005b92915050565b600082815260208190526040808220600101805490849055905190918391839186917fbd79b86ffe0ab8e8776151514217cd7cacd52c909f66475c3af44e129f0b00ff9190a4505050565b634e487b7160e01b600052604160045260246000fd5b60405160a081016001600160401b03811182821017156102f4576102f46102bc565b60405290565b604051601f8201601f191681016001600160401b0381118282101715610322576103226102bc565b604052919050565b80516001600160a01b038116811461034157600080fd5b919050565b600080600080600060a0868803121561035e57600080fd5b85516001600160401b0381111561037457600080fd5b860160a0818903121561038657600080fd5b61038e6102d2565b6103978261032a565b815260208281015190820152604080830151908201526060820151600281106103bf57600080fd5b606082015260808201516001600160401b038111156103dd57600080fd5b80830192505088601f8301126103f257600080fd5b81516001600160401b0381111561040b5761040b6102bc565b61041e601f8201601f19166020016102fa565b8181528a602083860101111561043357600080fd5b60005b8281101561045257602081860181015183830182015201610436565b50600060208383010152806080840152505080965050506104756020870161032a565b93506104836040870161032a565b92506104916060870161032a565b915061049f6080870161032a565b90509295509295909350565b634e487b7160e01b600052602160045260246000fd5b600181811c908216806104d557607f821691505b6020821081036104f557634e487b7160e01b600052602260045260246000fd5b50919050565b601f82111561054557806000526020600020601f840160051c810160208510156105225750805b601f840160051c820191505b81811015610542576000815560010161052e565b50505b505050565b81516001600160401b03811115610563576105636102bc565b6105778161057184546104c1565b846104fb565b6020601f8211600181146105ab57600083156105935750848201515b600019600385901b1c1916600184901b178455610542565b600084815260208120601f198516915b828110156105db57878501518255602094850194600190920191016105bb565b50848210156105f95786840151600019600387901b60f8161c191681555b50505050600190811b01905550565b60805161116f610631600039600081816102e3015281816105c00152610663015261116f6000f3fe608060405234801561001057600080fd5b50600436106101365760003560e01c806379502c55116100b8578063be4f6c391161007c578063be4f6c3914610272578063bec2b85214610285578063cea2dc9e146102b0578063d547741f146102b8578063e6ffc7a3146102cb578063fc0c546a146102de57600080fd5b806379502c551461021857806391d1485414610231578063a217fddf14610244578063a678b65b1461024c578063b3f3ab5c1461025f57600080fd5b80633c0a384f116100ff5780633c0a384f146101c457806357b1d79d146101d75780635aef573c146101ea5780636f4a2cd0146101fd57806375f7cc331461020557600080fd5b8062569ebe1461013b57806301ffc9a714610145578063248a9ca31461016d5780632f2ff15d1461019e57806336568abe146101b1575b600080fd5b610143610305565b005b610158610153366004610c58565b6103f7565b60405190151581526020015b60405180910390f35b61019061017b366004610c89565b60009081526020819052604090206001015490565b604051908152602001610164565b6101436101ac366004610cbe565b61042e565b6101436101bf366004610cbe565b610459565b6101436101d2366004610d8f565b610491565b6101436101e5366004610c89565b610503565b6101436101f8366004610dcc565b61055f565b61014361058f565b610143610213366004610c89565b6105a8565b6102206106c4565b604051610164959493929190610e7b565b61015861023f366004610cbe565b610777565b610190600081565b61014361025a366004610ec3565b6107a0565b61014361026d366004610ec3565b610888565b610143610280366004610ede565b610922565b600754610298906001600160a01b031681565b6040516001600160a01b039091168152602001610164565b6101436109e6565b6101436102c6366004610cbe565b610a20565b600654610298906001600160a01b031681565b6102987f000000000000000000000000000000000000000000000000000000000000000081565b600654604051632096744b60e11b81526001600160a01b039091169063412ce89690610338903390600190600401610f9d565b60006040518083038186803b15801561035057600080fd5b505afa158015610364573d6000803e3d6000fd5b50503360009081526008602052604090205460ff1615915061039b90505760405163c9e0398b60e01b815260040160405180910390fd5b3360009081526009602052604090205460ff16156103b557565b33600081815260086020526040808220805460ff19166001179055517f15ddd566864bad5527401ae58a8e790dc92d95607594b2e43d5aaf1f27ac13619190a2565b60006001600160e01b03198216637965db0b60e01b148061042857506301ffc9a760e01b6001600160e01b03198316145b92915050565b60008281526020819052604090206001015461044981610a45565b6104538383610a52565b50505050565b6001600160a01b03811633146104825760405163334bd91960e11b815260040160405180910390fd5b61048c8282610ae4565b505050565b60008051602061111a8339815191526104a981610a45565b336001600160a01b03167faf3ef9d5fe7fa082c30c18978bd70dac02058c990edb6cc62d41c372c95655e3836040516104e2919061109e565b60405180910390a260405163d623472560e01b815260040160405180910390fd5b7f0ce23c3e399818cfee81a7ab0880f714e53d7672b08df0fa62f2843416e1ea0961052d81610a45565b60405182815233907f768f12c7f801004b7b0c71da335b83bda9fca5c0af1cf27e11a33a3e9d20047d906020016104e2565b817fe07ad455e24561261e9047aab2f668ae1fc2cc6fda35021764673613b888836d826040516104e2919061109e565b60405163d623472560e01b815260040160405180910390fd5b6040516370a0823160e01b81523360048201526000907f00000000000000000000000000000000000000000000000000000000000000006001600160a01b0316906370a0823190602401602060405180830381865afa15801561060f573d6000803e3d6000fd5b505050506040513d601f19601f8201168201806040525081019061063391906110b1565b9050818110156106565760405163356680b760e01b815260040160405180910390fd5b61068b6001600160a01b037f000000000000000000000000000000000000000000000000000000000000000016333085610b4f565b60405182815233907fcf0957d316684bae71837a3a3cb4b8618a7a6e9fb401756c5a3d99fcf532f5b19060200160405180910390a25050565b60018054600254600354600454600580546001600160a01b03909516959394929360ff909216926106f490610f63565b80601f016020809104026020016040519081016040528092919081815260200182805461072090610f63565b801561076d5780601f106107425761010080835404028352916020019161076d565b820191906000526020600020905b81548152906001019060200180831161075057829003601f168201915b5050505050905085565b6000918252602082815260408084206001600160a01b0393909316845291905290205460ff1690565b6000805160206110fa8339815191526107b881610a45565b6001600160a01b03821660009081526008602052604090205460ff166107f157604051630bd94e9760e11b815260040160405180910390fd5b6001600160a01b03821660009081526009602052604090205460ff16610884576001600160a01b0382166000908152600960205260409020805460ff1916600117905561084c60008051602061111a83398151915283610a52565b5060405133906001600160a01b038416907fb201af416459d35e74f434c03081a780d572fc66e33503fa50575c76b9b548ac90600090a35b5050565b6000805160206110fa8339815191526108a081610a45565b6108b860008051602061111a83398151915283610777565b15610884576108d560008051602061111a83398151915283610ae4565b506001600160a01b038216600081815260096020526040808220805460ff19169055513392917fdfe811a95bef48e76e32818e44c91bba06027b310506108346fb435afcb93e0691a35050565b6000805160206110fa83398151915261093a81610a45565b6001600160a01b03841660009081526008602052604090205460ff1661097357604051630bd94e9760e11b815260040160405180910390fd5b6001600160a01b03841660009081526009602052604090205460ff1661045357336001600160a01b0316846001600160a01b03167fa48f4c1ccc0ba48a23c6f8469cc585d5868976d8c47a6e5a6c9e4e3621422f1b85856040516109d89291906110ca565b60405180910390a350505050565b6000805160206110fa8339815191526109fe81610a45565b600354421161058f57604051634564ebaf60e11b815260040160405180910390fd5b600082815260208190526040902060010154610a3b81610a45565b6104538383610ae4565b610a4f8133610ba9565b50565b6000610a5e8383610777565b610adc576000838152602081815260408083206001600160a01b03861684529091529020805460ff19166001179055610a943390565b6001600160a01b0316826001600160a01b0316847f2f8788117e7eff1d82e926ec794901d17c78024a50270940304540a733656f0d60405160405180910390a4506001610428565b506000610428565b6000610af08383610777565b15610adc576000838152602081815260408083206001600160a01b0386168085529252808320805460ff1916905551339286917ff6391f5c32d9c69d2a47ea670b442974b53935d1edc7fd64eb21e047a839171b9190a4506001610428565b604080516001600160a01b0385811660248301528416604482015260648082018490528251808303909101815260849091019091526020810180516001600160e01b03166323b872dd60e01b179052610453908590610be7565b610bb38282610777565b6108845760405163e2517d3f60e01b81526001600160a01b0382166004820152602481018390526044015b60405180910390fd5b600080602060008451602086016000885af180610c0a576040513d6000823e3d81fd5b50506000513d91508115610c22578060011415610c2f565b6001600160a01b0384163b155b1561045357604051635274afe760e01b81526001600160a01b0385166004820152602401610bde565b600060208284031215610c6a57600080fd5b81356001600160e01b031981168114610c8257600080fd5b9392505050565b600060208284031215610c9b57600080fd5b5035919050565b80356001600160a01b0381168114610cb957600080fd5b919050565b60008060408385031215610cd157600080fd5b82359150610ce160208401610ca2565b90509250929050565b634e487b7160e01b600052604160045260246000fd5b600082601f830112610d1157600080fd5b813567ffffffffffffffff811115610d2b57610d2b610cea565b604051601f8201601f19908116603f0116810167ffffffffffffffff81118282101715610d5a57610d5a610cea565b604052818152838201602001851015610d7257600080fd5b816020850160208301376000918101602001919091529392505050565b600060208284031215610da157600080fd5b813567ffffffffffffffff811115610db857600080fd5b610dc484828501610d00565b949350505050565b60008060408385031215610ddf57600080fd5b82359150602083013567ffffffffffffffff811115610dfd57600080fd5b610e0985828601610d00565b9150509250929050565b60028110610e3157634e487b7160e01b600052602160045260246000fd5b9052565b6000815180845260005b81811015610e5b57602081850181015186830182015201610e3f565b506000602082860101526020601f19601f83011685010191505092915050565b6001600160a01b03861681526020810185905260408101849052610ea26060820184610e13565b60a060808201526000610eb860a0830184610e35565b979650505050505050565b600060208284031215610ed557600080fd5b610c8282610ca2565b600080600060408486031215610ef357600080fd5b610efc84610ca2565b9250602084013567ffffffffffffffff811115610f1857600080fd5b8401601f81018613610f2957600080fd5b803567ffffffffffffffff811115610f4057600080fd5b866020828401011115610f5257600080fd5b939660209190910195509293505050565b600181811c90821680610f7757607f821691505b602082108103610f9757634e487b7160e01b600052602260045260246000fd5b50919050565b6001600160a01b0383811682526040602083018190528354909116908201526001820154606082015260028201546080820152600382015460009060ff16610fe860a0840182610e13565b5060a060c0830152600483018054600090600181811c9082168061100d57607f821691505b60208210810361102b57634e487b7160e01b84526022600452602484fd5b60e08701829052610100870181801561104b57600181146110615761108f565b60ff198516825283151560051b8201955061108f565b60008781526020902060005b858110156110895781548482015260019091019060200161106d565b83019650505b50939998505050505050505050565b602081526000610c826020830184610e35565b6000602082840312156110c357600080fd5b5051919050565b60208152816020820152818360408301376000818301604090810191909152601f909201601f1916010191905056fe1597bc5e34ff090612f53164e4e642d2ab4fc78bffe19ed1b602a0d12559561ae2889e7308860b3fe8df0daa86fccfea4d71e43776719a57be28cf90b6db81e9a264697066735822122027a23a58ea9a26c52e27a9717ee4771570f02be464ebb38ee84e9098251b07d864736f6c634300081b00331597bc5e34ff090612f53164e4e642d2ab4fc78bffe19ed1b602a0d12559561a","linkReferences":{}},"methodIdentifiers":{"DEFAULT_ADMIN_ROLE()":"a217fddf","acceptApplication(address)":"a678b65b","applyAsContributor()":"00569ebe","config()":"79502c55","contributorEligibility()":"e6ffc7a3","distributeRewards()":"6f4a2cd0","fundWithERC20(uint256)":"75f7cc33","getRoleAdmin(bytes32)":"248a9ca3","grantRole(bytes32,address)":"2f2ff15d","hasRole(bytes32,address)":"91d14854","raiseDispute(uint256,string)":"5aef573c","rejectApplication(address,string)":"be4f6c39","removeContributor(address)":"b3f3ab5c","renounceRole(bytes32,address)":"36568abe","returnUnclaimedFunds()":"cea2dc9e","revokeRole(bytes32,address)":"d547741f","submitImpact(string)":"3c0a384f","supportsInterface(bytes4)":"01ffc9a7","token()":"fc0c546a","verifierEligibility()":"bec2b852","verifyImpact(uint256)":"57b1d79d"},"id":41}