{"abi":[{"type":"constructor","inputs":[],"stateMutability":"nonpayable"},{"type":"function","name":"DEFAULT_ADMIN_ROLE","inputs":[],"outputs":[{"name":"","type":"bytes32","internalType":"bytes32"}],"stateMutability":"view"},{"type":"function","name":"get","inputs":[{"name":"id","type":"bytes4","internalType":"bytes4"}],"outputs":[{"name":"","type":"address","internalType":"address"}],"stateMutability":"view"},{"type":"function","name":"getAll","inputs":[],"outputs":[{"name":"","type":"tuple[]","internalType":"struct ModuleRegistry.ModuleInfo[]","components":[{"name":"addr","type":"address","internalType":"address"},{"name":"name","type":"string","internalType":"string"},{"name":"category","type":"uint8","internalType":"enum ModuleRegistry.ModuleCategory"}]}],"stateMutability":"view"},{"type":"function","name":"getRoleAdmin","inputs":[{"name":"role","type":"bytes32","internalType":"bytes32"}],"outputs":[{"name":"","type":"bytes32","internalType":"bytes32"}],"stateMutability":"view"},{"type":"function","name":"grantRole","inputs":[{"name":"role","type":"bytes32","internalType":"bytes32"},{"name":"account","type":"address","internalType":"address"}],"outputs":[],"stateMutability":"nonpayable"},{"type":"function","name":"hasRole","inputs":[{"name":"role","type":"bytes32","internalType":"bytes32"},{"name":"account","type":"address","internalType":"address"}],"outputs":[{"name":"","type":"bool","internalType":"bool"}],"stateMutability":"view"},{"type":"function","name":"register","inputs":[{"name":"module","type":"address","internalType":"address"},{"name":"name","type":"string","internalType":"string"},{"name":"category","type":"uint8","internalType":"enum ModuleRegistry.ModuleCategory"}],"outputs":[],"stateMutability":"nonpayable"},{"type":"function","name":"remove","inputs":[{"name":"module","type":"address","internalType":"address"}],"outputs":[],"stateMutability":"nonpayable"},{"type":"function","name":"renounceRole","inputs":[{"name":"role","type":"bytes32","internalType":"bytes32"},{"name":"callerConfirmation","type":"address","internalType":"address"}],"outputs":[],"stateMutability":"nonpayable"},{"type":"function","name":"revokeRole","inputs":[{"name":"role","type":"bytes32","internalType":"bytes32"},{"name":"account","type":"address","internalType":"address"}],"outputs":[],"stateMutability":"nonpayable"},{"type":"function","name":"supportsInterface","inputs":[{"name":"interfaceId","type":"bytes4","internalType":"bytes4"}],"outputs":[{"name":"","type":"bool","internalType":"bool"}],"stateMutability":"view"},{"type":"event","name":"ModuleRegistered","inputs":[{"name":"id","type":"bytes4","indexed":true,"internalType":"bytes4"},{"name":"module","type":"address","indexed":true,"internalType":"address"},{"name":"name","type":"string","indexed":false,"internalType":"string"},{"name":"category","type":"uint8","indexed":true,"internalType":"enum ModuleRegistry.ModuleCategory"}],"anonymous":false},{"type":"event","name":"ModuleRemoved","inputs":[{"name":"id","type":"bytes4","indexed":true,"internalType":"bytes4"},{"name":"module","type":"address","indexed":true,"internalType":"address"}],"anonymous":false},{"type":"event","name":"RoleAdminChanged","inputs":[{"name":"role","type":"bytes32","indexed":true,"internalType":"bytes32"},{"name":"previousAdminRole","type":"bytes32","indexed":true,"internalType":"bytes32"},{"name":"newAdminRole","type":"bytes32","indexed":true,"internalType":"bytes32"}],"anonymous":false},{"type":"event","name":"RoleGranted","inputs":[{"name":"role","type":"bytes32","indexed":true,"internalType":"bytes32"},{"name":"account","type":"address","indexed":true,"internalType":"address"},{"name":"sender","type":"address","indexed":true,"internalType":"address"}],"anonymous":false},{"type":"event","name":"RoleRevoked","inputs":[{"name":"role","type":"bytes32","indexed":true,"internalType":"bytes32"},{"name":"account","type":"address","indexed":true,"internalType":"address"},{"name":"sender","type":"address","indexed":true,"internalType":"address"}],"anonymous":false},{"type":"error","name":"AccessControlBadConfirmation","inputs":[]},{"type":"error","name":"AccessControlUnauthorizedAccount","inputs":[{"name":"account","type":"address","internalType":"address"},{"name":"neededRole","type":"bytes32","internalType":"bytes32"}]},{"type":"error","name":"InvalidModule","inputs":[]},{"type":"error","name":"ModuleAlreadyRegistered","inputs":[]},{"type":"error","name":"ModuleNotRegistered","inputs":[]}],"bytecode":{"object":"0x6080604052348015600f57600080fd5b506019600033601e565b5060c7565b6000828152602081815260408083206001600160a01b038516845290915281205460ff1660bd576000838152602081815260408083206001600160a01b03861684529091529020805460ff1916600117905560763390565b6001600160a01b0316826001600160a01b0316847f2f8788117e7eff1d82e926ec794901d17c78024a50270940304540a733656f0d60405160405180910390a450600160c1565b5060005b92915050565b611069806100d66000396000f3fe608060405234801561001057600080fd5b50600436106100a95760003560e01c806353ed51431161007157806353ed51431461014257806357f0b1381461015757806362a2cf0c1461016a57806391d14854146101b5578063a217fddf146101c8578063d547741f146101d057600080fd5b806301ffc9a7146100ae578063248a9ca3146100d657806329092d0e146101075780632f2ff15d1461011c57806336568abe1461012f575b600080fd5b6100c16100bc366004610b97565b6101e3565b60405190151581526020015b60405180910390f35b6100f96100e4366004610bbb565b60009081526020819052604090206001015490565b6040519081526020016100cd565b61011a610115366004610bf0565b61021a565b005b61011a61012a366004610c0b565b6104d0565b61011a61013d366004610c0b565b6104fb565b61014a610533565b6040516100cd9190610c93565b61011a610165366004610d68565b61071d565b61019d610178366004610b97565b6001600160e01b0319166000908152600160205260409020546001600160a01b031690565b6040516001600160a01b0390911681526020016100cd565b6100c16101c3366004610c0b565b61095c565b6100f9600081565b61011a6101de366004610c0b565b610985565b60006001600160e01b03198216637965db0b60e01b148061021457506301ffc9a760e01b6001600160e01b03198316145b92915050565b6000610225816109aa565b6001600160a01b03821661024c57604051631bb2296560e31b815260040160405180910390fd5b6000826001600160a01b031663a1308f276040518163ffffffff1660e01b8152600401602060405180830381865afa15801561028c573d6000803e3d6000fd5b505050506040513d601f19601f820116820180604052508101906102b09190610e42565b6001600160e01b031981166000908152600160205260409020549091506001600160a01b03166102f357604051634e25774f60e11b815260040160405180910390fd5b6001600160e01b031981166000908152600160208190526040822080546001600160a01b0319168155919061032a90830182610af5565b50600201805460ff1916905560005b6002546001600160801b038216101561048a57816001600160e01b0319166002826001600160801b03168154811061037357610373610e5f565b90600052602060002090600891828204019190066004029054906101000a900460e01b6001600160e01b0319160361047857600280546103b590600190610e8b565b815481106103c5576103c5610e5f565b90600052602060002090600891828204019190066004029054906101000a900460e01b6002826001600160801b03168154811061040457610404610e5f565b90600052602060002090600891828204019190066004026101000a81548163ffffffff021916908360e01c0217905550600280548061044557610445610e9e565b600082815260209020600860001990920191820401805463ffffffff600460078516026101000a0219169055905561048a565b8061048281610eb4565b915050610339565b506040516001600160a01b038416906001600160e01b03198316907ff49a031efa747525c8c981c4c1a2a99171f0c609de04517211ae1052d4323dfc90600090a3505050565b6000828152602081905260409020600101546104eb816109aa565b6104f583836109b7565b50505050565b6001600160a01b03811633146105245760405163334bd91960e11b815260040160405180910390fd5b61052e8282610a49565b505050565b60025460609060009067ffffffffffffffff81111561055457610554610d43565b60405190808252806020026020018201604052801561058d57816020015b61057a610b2f565b8152602001906001900390816105725790505b50905060005b6002546001600160801b038216101561071757600160006002836001600160801b0316815481106105c6576105c6610e5f565b6000918252602080832060088304015460079092166004026101000a90910460e01b6001600160e01b0319168352828101939093526040918201902081516060810190925280546001600160a01b03168252600181018054929391929184019161062f90610edf565b80601f016020809104026020016040519081016040528092919081815260200182805461065b90610edf565b80156106a85780601f1061067d576101008083540402835291602001916106a8565b820191906000526020600020905b81548152906001019060200180831161068b57829003601f168201915b5050509183525050600282015460209091019060ff1680156106cc576106cc610c7d565b80156106da576106da610c7d565b8152505082826001600160801b0316815181106106f9576106f9610e5f565b6020026020010181905250808061070f90610eb4565b915050610593565b50919050565b6000610728816109aa565b6001600160a01b03841661074f57604051631bb2296560e31b815260040160405180910390fd5b6000846001600160a01b031663a1308f276040518163ffffffff1660e01b8152600401602060405180830381865afa15801561078f573d6000803e3d6000fd5b505050506040513d601f19601f820116820180604052508101906107b39190610e42565b6001600160e01b031981166000908152600160205260409020549091506001600160a01b0316156107f7576040516395b0718d60e01b815260040160405180910390fd5b6040518060600160405280866001600160a01b0316815260200185815260200184600081111561082957610829610c7d565b90526001600160e01b031982166000908152600160208181526040909220835181546001600160a01b0319166001600160a01b0390911617815591830151908201906108759082610f61565b50604082015160028201805460ff1916600183801561089657610896610c7d565b021790555050600280546001810182556000919091527f405787fa12a823e0f2b7631cc41b3ba8828b3321ca811111fa75cd3aa3bb5ace6008820401805463ffffffff60079093166004026101000a928302191660e085901c929092029190911790555082801561090957610909610c7d565b856001600160a01b0316826001600160e01b0319167f935334d5d2bbfe6ef35a286309dd17cf0c56e37a884eb601d07741adb8a1a1af8760405161094d9190611020565b60405180910390a45050505050565b6000918252602082815260408084206001600160a01b0393909316845291905290205460ff1690565b6000828152602081905260409020600101546109a0816109aa565b6104f58383610a49565b6109b48133610ab4565b50565b60006109c3838361095c565b610a41576000838152602081815260408083206001600160a01b03861684529091529020805460ff191660011790556109f93390565b6001600160a01b0316826001600160a01b0316847f2f8788117e7eff1d82e926ec794901d17c78024a50270940304540a733656f0d60405160405180910390a4506001610214565b506000610214565b6000610a55838361095c565b15610a41576000838152602081815260408083206001600160a01b0386168085529252808320805460ff1916905551339286917ff6391f5c32d9c69d2a47ea670b442974b53935d1edc7fd64eb21e047a839171b9190a4506001610214565b610abe828261095c565b610af15760405163e2517d3f60e01b81526001600160a01b03821660048201526024810183905260440160405180910390fd5b5050565b508054610b0190610edf565b6000825580601f10610b11575050565b601f0160209004906000526020600020908101906109b49190610b68565b604051806060016040528060006001600160a01b0316815260200160608152602001600080811115610b6357610b63610c7d565b905290565b5b80821115610b7d5760008155600101610b69565b5090565b6001600160e01b0319811681146109b457600080fd5b600060208284031215610ba957600080fd5b8135610bb481610b81565b9392505050565b600060208284031215610bcd57600080fd5b5035919050565b80356001600160a01b0381168114610beb57600080fd5b919050565b600060208284031215610c0257600080fd5b610bb482610bd4565b60008060408385031215610c1e57600080fd5b82359150610c2e60208401610bd4565b90509250929050565b6000815180845260005b81811015610c5d57602081850181015186830182015201610c41565b506000602082860101526020601f19601f83011685010191505092915050565b634e487b7160e01b600052602160045260246000fd5b6000602082016020835280845180835260408501915060408160051b86010192506020860160005b82811015610d3757868503603f19018452815180516001600160a01b03168652602080820151606091880182905290610cf690880182610c37565b90506040820151915060018210610d1d57634e487b7160e01b600052602160045260246000fd5b604096909601526020938401939190910190600101610cbb565b50929695505050505050565b634e487b7160e01b600052604160045260246000fd5b803560018110610beb57600080fd5b600080600060608486031215610d7d57600080fd5b610d8684610bd4565b9250602084013567ffffffffffffffff811115610da257600080fd5b8401601f81018613610db357600080fd5b803567ffffffffffffffff811115610dcd57610dcd610d43565b604051601f8201601f19908116603f0116810167ffffffffffffffff81118282101715610dfc57610dfc610d43565b604052818152828201602001881015610e1457600080fd5b81602084016020830137600060208383010152809450505050610e3960408501610d59565b90509250925092565b600060208284031215610e5457600080fd5b8151610bb481610b81565b634e487b7160e01b600052603260045260246000fd5b634e487b7160e01b600052601160045260246000fd5b8181038181111561021457610214610e75565b634e487b7160e01b600052603160045260246000fd5b60006001600160801b0382166001600160801b038103610ed657610ed6610e75565b60010192915050565b600181811c90821680610ef357607f821691505b60208210810361071757634e487b7160e01b600052602260045260246000fd5b601f82111561052e57806000526020600020601f840160051c81016020851015610f3a5750805b601f840160051c820191505b81811015610f5a5760008155600101610f46565b5050505050565b815167ffffffffffffffff811115610f7b57610f7b610d43565b610f8f81610f898454610edf565b84610f13565b6020601f821160018114610fc35760008315610fab5750848201515b600019600385901b1c1916600184901b178455610f5a565b600084815260208120601f198516915b82811015610ff35787850151825560209485019460019092019101610fd3565b50848210156110115786840151600019600387901b60f8161c191681555b50505050600190811b01905550565b602081526000610bb46020830184610c3756fea2646970667358221220b135968a5117cef626aa951f7ccdd4d56f184cb91a5b3adaa768a13d6c4e388c64736f6c634300081b0033","linkReferences":{}},"methodIdentifiers":{"DEFAULT_ADMIN_ROLE()":"a217fddf","get(bytes4)":"62a2cf0c","getAll()":"53ed5143","getRoleAdmin(bytes32)":"248a9ca3","grantRole(bytes32,address)":"2f2ff15d","hasRole(bytes32,address)":"91d14854","register(address,string,uint8)":"57f0b138","remove(address)":"29092d0e","renounceRole(bytes32,address)":"36568abe","revokeRole(bytes32,address)":"d547741f","supportsInterface(bytes4)":"01ffc9a7"},"id":22}